:100000000C942A000C9447000C9447000C94470071
:100010000C9447000C9447000C9447000C94470044
:100020000C9447000C9447000C9438180C946B18EF
:100030000C9447000C9447000C9447000C94470024
:100040000C9447000C9447000C9447000C94470014
:100050000C94470011241FBECFE5D8E0DEBFCDBF12
:1000600011E0A0E6B0E0E8EEF1E302C005900D92E9
:10007000A23EB107D9F711E0A2EEB1E001C01D9296
:10008000A83EB107E1F70E949E180C94F2180C9458
:100090000000EF92FF920F931F937B018C0120E0F1
:1000A00030E040E05FE40E94D10488238CF0C80176
:1000B000B70120E030E040E05FE40E949D020E9432
:1000C0008F059B01AC01205030404040504806C095
:1000D000C801B7010E948F059B01AC01B901CA019B
:1000E0001F910F91FF90EF900895A2E0B0E0EBE731
:1000F000F0E00C94BB18122FB32EA42E952E862E52
:10010000372E282E9A83C22ED32EE42EF52EA70149
:10011000960160E070E080E090E02117A1F43B15CB
:1001200091F44A1581F4591571F4681561F4731549
:1001300051F4821541F4AA819A1729F4C701B60136
:100140000E94E305AAC0212F3B2D4A2D592D682D71
:10015000732D822D9A8100E20E945C06C901DA01AA
:100160008030E0E09E07E1E0AE07E0E0BE0780F40B
:100170008F3F9105A105B10531F028F028E030E06E
:1001800040E050E016C020E030E040E050E011C018
:100190008030F0E09F07F0E0AF07F1E0BF0728F004
:1001A00028E130E040E050E004C020E130E040E0F1
:1001B00050E0022E04C0B695A795979587950A94AE
:1001C000D2F7FC01E853FF4F808129013A01480E24
:1001D000511C611C711C4982212F3B2D4A2D592D28
:1001E000682D732D822D9A81042D0E945C06C90111
:1001F000DA014C015D0180E290E08419950904C0A8
:10020000CC0CDD1CEE1CFF1C8A95D2F7C114D10466
:10021000E104F10441F081E090E0A0E0B0E0882A40
:10022000992AAA2ABB2A90E2491651046104710452
:1002300059F40F2EF0E0EF2EF0E0FF2EF0E80F2F34
:10024000FFE41F2FF02D21C0AFE14A1651046104D5
:10025000710459F40F2EF0E0EF2EF0E0FF2EF0E0E5
:100260000F2FFFE41F2FF02D10C061E070E080E041
:1002700090E0098004C0660F771F881F991F0A94B9
:10028000D2F70E9431057B018C01C501B4010E94A7
:10029000E305A80197010E94FB022296E2E10C947B
:1002A000D718A0E0B0E0E7E5F1E00C94BB18DC0162
:1002B0002B01FA019C91923008F439C1EB0188813D
:1002C000823008F433C1943069F4843009F02FC1CE
:1002D00011969C9111978981981709F428C1A0EC77
:1002E000B0E025C1843009F421C18230A9F49230F4
:1002F00009F01DC19A01AD0188E0EA010990AE0143
:10030000E90109929E018150C1F7E20189811196AC
:100310009C918923818308C1923009F407C1129608
:100320002D903C901397EB018A819B811496AD90A0
:10033000BD90CD90DC901797EC80FD800E811F81E1
:100340009101281B390BB90137FF04C066277727B5
:10035000621B730B603271050CF061C0121613063C
:100360006CF537014801062E04C096948794779463
:1003700067940A94D2F721E030E040E050E004C0F6
:10038000220F331F441F551F6A95D2F7215030406A
:10039000404050402E213F2140235123211531055B
:1003A0004105510521F021E030E040E050E07901C5
:1003B0008A01E628F728082919293CC0232BD1F106
:1003C000260E371E35014601062E04C096948794EA
:1003D000779467940A94D2F721E030E040E050E04F
:1003E00004C0220F331F441F551F6A95D2F72150B6
:1003F0003040404050402A213B214C215D212115B5
:1004000031054105510521F021E030E040E050E0A8
:1004100059016A01A628B728C828D9280BC0821517
:1004200093052CF01C01AA24BB24650103C0EE2413
:10043000FF24870111969C91D20111968C919817F7
:1004400009F445C0992339F0A80197012A193B09FD
:100450004C095D0906C0A60195012E193F09400B04
:10046000510B57FD08C011823382228224833583C9
:10047000468357831DC081E081833382228288278F
:100480009927DC01821B930BA40BB50B8483958306
:10049000A683B7830DC0220F331F441F551F24832B
:1004A0003583468357838281938101979383828327
:1004B0002481358146815781DA01C9010197A1095B
:1004C000B1098F5F9F4FAF4FBF4328F30BC091839C
:1004D00033822282EA0CFB1C0C1D1D1DE482F58276
:1004E0000683178383E08083248135814681578189
:1004F00057FF1AC0C901AA2797FDA095BA2F81708E
:100500009070A070B0705695479537952795822BBF
:10051000932BA42BB52B84839583A683B7838281E9
:100520009381019693838283DF0101C0D201CD01C3
:10053000CDB7DEB7E2E10C94D718A0E2B0E0E3EA71
:10054000F2E00C94C71869837A838B839C832D8394
:100550003E834F835887E9E0EE2EF12CEC0EFD1E12
:10056000CE010196B7010E94FF078E010F5E1F4F5B
:10057000CE010596B8010E94FF078A8991E089277C
:100580008A8BC701B801AE01475E5F4F0E945101DF
:100590000E942A07A096E6E00C94E318A0E2B0E0DF
:1005A000E4EDF2E00C94C71869837A838B839C8313
:1005B0002D833E834F835887F9E0EF2EF12CEC0E0C
:1005C000FD1ECE010196B7010E94FF078E010F5E4E
:1005D0001F4FCE010596B8010E94FF07C701B80161
:1005E000AE01475E5F4F0E9451010E942A07A0960C
:1005F000E6E00C94E318A0E2B0E0E1E0F3E00C9454
:10060000BB1869837A838B839C832D833E834F83BE
:100610005887CE010196BE01675F7F4F0E94FF079A
:10062000CE010596BE016F5E7F4F0E94FF07998540
:10063000923088F089898230C8F0943019F4823081
:1006400051F404C0843029F4923081F480EC90E0BD
:10065000C6C0923049F420E09A858A89981321E037
:100660002A87CE010996BBC0823049F420E09A85E2
:100670008A89981321E02A8BCE014196B0C02D843F
:100680003E844F8458886D887E888F88988CEE24AD
:10069000FF248701AA24BB24650140E050E060E00C
:1006A00070E0E0E0F0E0C10181709070892BE9F02A
:1006B000E60CF71C081D191D9A01AB012A0D3B1D04
:1006C0004C1D5D1D80E090E0A0E0B0E0E614F70472
:1006D0000805190520F481E090E0A0E0B0E0BA013F
:1006E000A901480F591F6A1F7B1FAA0CBB1CCC1CF9
:1006F000DD1C97FE08C081E090E0A0E0B0E0A82AF1
:10070000B92ACA2ADB2A3196E032F10549F0660C93
:10071000771C881C991C5694479437942794C3CF10
:10072000FA85EA892B893C898B859C85280F391F9E
:100730002E5F3F4F17C0CA0181709070892B61F006
:1007400016950795F794E79480E090E0A0E0B0E874
:10075000E82AF92A0A2B1B2B76956795579547951A
:100760002F5F3F4F77FDE7CF0CC0440F551F661F2B
:10077000771F17FD4160EE0CFF1C001F111F215059
:100780003040403090E0590790E0690790E47907E5
:1007900060F32B8F3C8FDB01CA018F779070A070C4
:1007A000B07080349105A105B10561F447FD0AC020
:1007B000E114F1040105110529F0405C5F4F6F4F12
:1007C0007F4F40781A8EFE1711F081E08A8F4D8F8F
:1007D0005E8F6F8F78A383E0898FCE0149960E9448
:1007E0002A07A096E2E10C94D718A8E1B0E0EBEF5D
:1007F000F3E00C94C31869837A838B839C832D83E5
:100800003E834F835887B9E0EB2EF12CEC0EFD1E92
:10081000CE010196B7010E94FF078E010F5E1F4FA8
:10082000CE010596B8010E94FF072985223008F401
:100830007EC03989323010F4B8017CC08A859A892B
:1008400089278A87243011F0223031F4231709F0E8
:100850006EC060EC70E06EC0343039F41D861E86C8
:100860001F86188A1C861B8604C0323021F484E05F
:100870008987B7015FC02B853C858B899C89281BA4
:10088000390B3C872B87ED84FE840F851889AD8852
:10089000BE88CF88D88CEA14FB040C051D0540F4F3
:1008A000EE0CFF1C001F111F215030403C872B878E
:1008B00020E030E040E050E080E090E0A0E0B0E4F4
:1008C00060E070E0EA14FB040C051D0540F0282BE5
:1008D000392B4A2B5B2BEA18FB080C091D09B6952E
:1008E000A79597958795EE0CFF1C001F111F6F5F52
:1008F0007F4F6F31710531F7DA01C9018F77907041
:10090000A070B07080349105A105B10561F427FD98
:100910000AC0E114F1040105110529F0205C3F4FE4
:100920004F4F5F4F20782D873E874F87588BBE01F2
:10093000675F7F4FCB010E942A076896EAE00C941C
:10094000DF18A8E1B0E0E7EAF4E00C94C718698387
:100950007A838B839C832D833E834F83588789E0E2
:10096000E82EF12CEC0EFD1ECE010196B7010E947F
:10097000FF078E010F5E1F4FCE010596B8010E9442
:10098000FF078985823040F08989823028F0C701CD
:10099000B8010E94770801C08FEF6896E6E00C94DA
:1009A000E318A8E1B0E0E7EDF4E00C94C718698320
:1009B0007A838B839C832D833E834F83588789E082
:1009C000E82EF12CEC0EFD1ECE010196B7010E941F
:1009D000FF078E010F5E1F4FCE010596B8010E94E2
:1009E000FF078985823040F08989823028F0C7016D
:1009F000B8010E94770801C08FEF6896E6E00C947A
:100A0000E318A8E1B0E0E7E0F5E00C94C7186983CB
:100A10007A838B839C832D833E834F83588789E021
:100A2000E82EF12CEC0EFD1ECE010196B7010E94BE
:100A3000FF078E010F5E1F4FCE010596B8010E9481
:100A4000FF078985823040F08989823028F0C7010C
:100A5000B8010E94770801C081E06896E6E00C9436
:100A6000E318A8E0B0E0E7E3F5E00C94C4189B01BC
:100A7000AC0183E08983DA01C9018827B7FD83953A
:100A80009927AA27BB27B82E211531054105510505
:100A900019F482E089833AC08823A9F0203080E0ED
:100AA000380780E0480780E8580729F460E070E0E4
:100AB00080E09FEC30C0EE24FF248701E21AF30AA5
:100AC000040B150B02C079018A018EE1C82ED12CCE
:100AD000DC82CB82ED82FE820F831887C801B701CA
:100AE0000E94DB0601971816190684F4082E04C02C
:100AF000EE0CFF1C001F111F0A94D2F7ED82FE823C
:100B00000F831887C81AD90ADC82CB82BA82CE0139
:100B100001960E942A072896E9E00C94E018ACE0C0
:100B2000B0E0E5E9F5E00C94CB1869837A838B8318
:100B30009C83CE010196BE016B5F7F4F0E94FF0731
:100B40008D81823061F1823050F1843021F48E81C8
:100B5000882351F12EC02F81388537FD20C06E814A
:100B60002F3131051CF06623F9F023C08EE190E0AF
:100B7000821B930B29853A854B855C8504C056956D
:100B80004795379527958A95D2F76623B1F050950A
:100B90004095309521953F4F4F4F5F4F0EC020E05D
:100BA00030E040E050E009C02FEF3FEF4FEF5FE74C
:100BB00004C020E030E040E050E8B901CA012C96C2
:100BC000E2E00C94E718A8E0B0E0E9EEF5E00C9460
:100BD000C3187B018C01611571058105910519F41C
:100BE00082E0898360C083E089838EE1C82ED12CA6
:100BF000DC82CB82ED82FE820F831887C801B701A9
:100C00000E94DB06FC013197F7FF3BC02227332708
:100C10002E1B3F0B57016801022E04C0D694C794C7
:100C2000B794A7940A94D2F740E050E060E070E0F7
:100C300081E090E0A0E0B0E004C0880F991FAA1FF7
:100C4000BB1F2A95D2F70197A109B1098E219F21D7
:100C5000A023B1230097A105B10521F041E050E0A8
:100C600060E070E04A295B296C297D294D835E8311
:100C70006F8378878EE190E08E1B9F0B9C838B8324
:100C800012C0309781F00E2E04C0EE0CFF1C001F26
:100C9000111F0A94D2F7ED82FE820F831887CE1AB5
:100CA000DF0ADC82CB821A82CE0101960E942A07DB
:100CB0002896EAE00C94DF18EF92FF920F93DF93EF
:100CC000CF93CDB7DEB760970FB6F894DEBF0FBEF7
:100CD000CDBFA82F002309F461C07E010894E11C58
:100CE000F11C88E0F70111928A95E9F729833A838C
:100CF0004B835C836D837E83AF83988780E2801B08
:100D0000E82FFF27E7FDF0954D815E816F817885A3
:100D1000181684F01D861E861F86188A8827992734
:100D20008E1B9F0B04C076956795579547958A95BE
:100D3000D2F728C0202F332727FD3095DB01CA01C9
:100D4000022E04C0B695A795979587950A94D2F779
:100D50008D879E87AF87B88B04C0440F551F661FD1
:100D6000771FEA95D2F789819A81AB81BC8104C053
:100D7000B695A795979587952A95D2F7482B592B25
:100D80006A2B7B2B49875A876B877C8729853A8515
:100D90004B855C856D857E85AF8598898A2F6096A9
:100DA0000FB6F894DEBF0FBECDBFCF91DF910F918C
:100DB000FF90EF900895EF92FF920F931F937B01A6
:100DC0008C0180E0E81680E0F80681E0080780E00A
:100DD000180788F48FEFE816F1040105110531F0CA
:100DE00028F088E090E0A0E0B0E017C080E090E05C
:100DF000A0E0B0E012C080E0E81680E0F80680E0F5
:100E0000080781E0180728F088E190E0A0E0B0E052
:100E100004C080E190E0A0E0B0E020E230E040E0FB
:100E200050E0281B390B4A0B5B0B04C01695079545
:100E3000F794E7948A95D2F7F701E853FF4F808142
:100E4000281B310941095109C9011F910F91FF90D8
:100E5000EF900895DF92EF92FF920F931F93FC01A2
:100E6000E480F58006811781D1808081823048F44A
:100E700080E090E0A0E1B0E0E82AF92A0A2B1B2BE1
:100E8000A5C0843009F49FC0823021F4EE24FF24F1
:100E9000870105C0E114F1040105110519F4E0E032
:100EA000F0E096C0628173819FEF623879070CF0A1
:100EB0005BC022E83FEF261B370B2A3131052CF0AF
:100EC00020E030E040E050E02AC0B801A701022E47
:100ED00004C076956795579547950A94D2F781E0B7
:100EE00090E0A0E0B0E004C0880F991FAA1FBB1FCC
:100EF0002A95D2F70197A109B1098E219F21A0233C
:100F0000B1230097A105B10521F081E090E0A0E0B8
:100F1000B0E09A01AB01282B392B4A2B5B2BDA016D
:100F2000C9018F779070A070B07080349105A105D1
:100F3000B10539F427FF09C0205C3F4F4F4F5F4F89
:100F400004C0215C3F4F4F4F5F4FE0E0F0E02030A6
:100F5000A0E03A07A0E04A07A0E45A0710F0E1E059
:100F6000F0E079018A0127C06038710564F5FB0162
:100F7000E158FF4FD801C7018F779070A070B07013
:100F800080349105A105B10539F4E7FE0DC080E478
:100F900090E0A0E0B0E004C08FE390E0A0E0B0E01B
:100FA000E80EF91E0A1F1B1F17FF05C016950795AF
:100FB000F794E794319687E016950795F794E794B0
:100FC0008A95D1F705C0EE24FF248701EFEFF0E00A
:100FD0006E2F679566276795902F9F77D794DD24AE
:100FE000D7948E2F8695492F462B582F5D29B70110
:100FF000CA011F910F91FF90EF90DF900895FC01BF
:10100000DB01408151812281622F6F7770E0221FC6
:101010002227221F9381892F880F822B282F30E0CF
:10102000991F9927991F11969C93119721153105A6
:10103000A9F5411551056105710511F482E037C02C
:1010400082E89FEF13969C938E9312979A01AB01BF
:1010500067E0220F331F441F551F6A95D1F783E0C5
:101060008C930DC0220F331F441F551F12968D9174
:101070009C911397019713969C938E93129720300F
:1010800080E0380780E0480780E4580758F314965A
:101090002D933D934D935C93179708952F3F310502
:1010A00079F4411551056105710519F484E08C93BB
:1010B000089564FF03C081E08C9312C01C9210C09D
:1010C0002F57304013963C932E93129783E08C93C6
:1010D00087E0440F551F661F771F8A95D1F770640C
:1010E00014964D935D936D937C93179708951F937A
:1010F000DC01FB019C91923008F447C08081823072
:1011000008F443C0943051F411961C91843099F541
:101110008181682F70E0611B71093FC0843021F02C
:10112000923031F48230B9F18181882389F12DC068
:1011300011961C9111978230F1F081811817D9F422
:1011400012962D913C911397828193818217930778
:1011500094F028173907BCF014968D919D910D904D
:10116000BC91A02D248135814681578128173907EC
:101170004A075B0718F4112341F00AC0821793074E
:10118000A407B50740F4112319F061E070E005C031
:101190006FEF7FEF02C060E070E0CB011F91089518
:1011A000DF93CF930F92CDB7DEB70E94EC17898300
:1011B0008981882F90E0A0E0B0E0BC01CD010E94C1
:1011C000E305DC01CB01BC01CD0120E030E040E6CD
:1011D00051E40E94FB02DC01CB01BC01CD0120E007
:1011E00030E04FE753E40E94F503DC01CB01BC0182
:1011F000CD010E944900DC01CB018093C8010F9012
:10120000CF91DF910895DF93CF93CDB7DEB7809173
:10121000E4018F5F8093E4018091E4018C3D31F41F
:1012200081E08093E30180E00E94F617CF91DF9187
:101230000895DF93CF930F92CDB7DEB7198280E088
:1012400061E00E94761580E00E94F6172FC00E9490
:10125000FE1389838091E301813061F189818F3FA1
:10126000B1F389818D3329F480E060E00E94761526
:1012700021C08091E201882F90E09C01220F331F52
:10128000C901880F991F880F991F820F931F982FEC
:101290008981890F8093E20181E069E00E94C80E94
:1012A0008091E201882F90E00E94780E8091E30106
:1012B000882369F20F90CF91DF910895DF93CF9348
:1012C000CDB7DEB78091E2018823B1F48091E501CA
:1012D000882391F480E690E00E944F0E81E060E068
:1012E0000E94C80E8EE690E00E944F0E8091E501AC
:1012F0008F5F8093E50149C08091E201882321F04E
:101300008091E2018F3F79F40E948C0D86E790E096
:101310000E944F0E81E060E00E94C80E87E890E0D6
:101320000E944F0E32C08091E201803138F00E945D
:101330008C0D83E990E00E944F0E27C09091C80168
:101340008091E201981739F40E948C0D81EA90E0B7
:101350000E944F0E1AC09091C8018091E201981727
:10136000A1F00E948C0D89EA90E00E944F0E81E06E
:1013700060E00E94C80E82EB90E00E944F0E8091C8
:10138000C801882F90E00E94780ECF91DF910895D8
:10139000DF93CF93CDB7DEB70E9476140E94BE0DC7
:1013A0000E945E090E9421150E94E21380E060E025
:1013B0000E94761583E099E00E941A18CF91DF9180
:1013C0000895DF93CF93CDB7DEB70E9419090E942D
:1013D0005E09CF91DF910895DF93CF93CDB7DEB74C
:1013E0006E970FB6F894DEBF0FBECDBF8E8F8E8D79
:1013F000807F8D8F83E060E040E00E946B1183E08E
:1014000061E040E00E946B1182E06D8D0E9422112C
:1014100083E062E041E00E946B1180E090E0A0E098
:10142000B0E4898F9A8FAB8FBC8F698D7A8D8B8D4D
:101430009C8D20E030E04AEF54E40E94FB02DC0186
:10144000CB018D8B9E8BAF8BB88F6D897E898F89F9
:10145000988D20E030E040E85FE30E94010588239A
:101460002CF481E090E09C8B8B8B3FC06D897E8952
:101470008F89988D20E03FEF4FE757E40E94A10449
:1014800018164CF5698D7A8D8B8D9C8D20E030E09F
:1014900040E251E40E94FB02DC01CB01BC01CD0122
:1014A0000E944900DC01CB019C8B8B8B0FC088EC28
:1014B00090E09A8B898B89899A890197F1F79A8BA9
:1014C000898B8B899C8901979C8B8B8B8B899C89C1
:1014D000009769F714C06D897E898F89988D0E9465
:1014E0004900DC01CB019C8B8B8B8B899C89988B71
:1014F0008F878F8598890197F1F7988B8F8783E085
:1015000062E040E00E946B118E8D8295807F8D8F0E
:1015100082E06D8D0E94221183E062E041E00E9432
:101520006B1180E090E0A0E0B0E48B879C87AD87F2
:10153000BE876B857C858D859E8520E030E04AEFF7
:1015400054E40E94FB02DC01CB018F839887A987BA
:10155000BA876F81788589859A8520E030E040E8F8
:101560005FE30E94010588232CF481E090E09E83D4
:101570008D833FC06F81788589859A8520E03FEF14
:101580004FE757E40E94A10418164CF56B857C8543
:101590008D859E8520E030E040E251E40E94FB0210
:1015A000DC01CB01BC01CD010E944900DC01CB0173
:1015B0009E838D830FC088EC90E09C838B838B810E
:1015C0009C810197F1F79C838B838D819E8101978C
:1015D0009E838D838D819E81009769F714C06F81F2
:1015E000788589859A850E944900DC01CB019E831C
:1015F0008D838D819E819A83898389819A810197C8
:10160000F1F79A83898383E062E040E00E946B11E6
:101610006E960FB6F894DEBF0FBECDBFCF91DF91AF
:101620000895DF93CF93CDB7DEB76E970FB6F894DA
:10163000DEBF0FBECDBF8E8F8E8D807F8D8F83E0FE
:1016400060E041E00E946B1183E061E040E00E94B5
:101650006B1182E06D8D0E94221183E062E041E017
:101660000E946B1180E090E0A0E0B0E4898F9A8F37
:10167000AB8FBC8F698D7A8D8B8D9C8D20E030E097
:101680004AEF54E40E94FB02DC01CB018D8B9E8B60
:10169000AF8BB88F6D897E898F89988D20E030E07F
:1016A00040E85FE30E94010588232CF481E090E08C
:1016B0009C8B8B8B3FC06D897E898F89988D20E0B4
:1016C0003FEF4FE757E40E94A10418164CF5698DCF
:1016D0007A8D8B8D9C8D20E030E040E251E40E94B9
:1016E000FB02DC01CB01BC01CD010E944900DC0101
:1016F000CB019C8B8B8B0FC088EC90E09A8B898BF5
:1017000089899A890197F1F79A8B898B8B899C89B2
:1017100001979C8B8B8B8B899C89009769F714C0F0
:101720006D897E898F89988D0E944900DC01CB01EB
:101730009C8B8B8B8B899C89988B8F878F859889C5
:101740000197F1F7988B8F8783E062E040E00E9479
:101750006B118E8D8295807F8D8F82E06D8D0E94C2
:10176000221183E062E041E00E946B1180E090E092
:10177000A0E0B0E48B879C87AD87BE876B857C85B6
:101780008D859E8520E030E04AEF54E40E94FB0204
:10179000DC01CB018F839887A987BA876F81788511
:1017A00089859A8520E030E040E85FE30E940105EA
:1017B00088232CF481E090E09E838D833FC06F816D
:1017C000788589859A8520E03FEF4FE757E40E94AE
:1017D000A10418164CF56B857C858D859E8520E0CF
:1017E00030E040E251E40E94FB02DC01CB01BC018D
:1017F000CD010E944900DC01CB019E838D830FC087
:1018000088EC90E09C838B838B819C810197F1F71E
:101810009C838B838D819E8101979E838D838D8197
:101820009E81009769F714C06F81788589859A85B4
:101830000E944900DC01CB019E838D838D819E81B6
:101840009A83898389819A810197F1F79A838983A1
:1018500083E062E040E00E946B116E960FB6F89450
:10186000DEBF0FBECDBFCF91DF910895DF93CF9341
:10187000CDB7DEB72F970FB6F894DEBF0FBECDBF42
:101880008F8783E060E040E00E946B1183E061E0BD
:1018900040E00E946B1182E06F850E94221183E07C
:1018A00062E041E00E946B1180E090E0A0E0B0E4D3
:1018B0008B879C87AD87BE876B857C858D859E8554
:1018C00020E030E04AEF54E40E94FB02DC01CB014F
:1018D0008F839887A987BA876F81788589859A854C
:1018E00020E030E040E85FE30E94010588232CF40B
:1018F00081E090E09E838D833FC06F8178858985EC
:101900009A8520E03FEF4FE757E40E94A1041816A4
:101910004CF56B857C858D859E8520E030E040E22E
:1019200051E40E94FB02DC01CB01BC01CD010E940D
:101930004900DC01CB019E838D830FC088EC90E0D1
:101940009C838B838B819C810197F1F79C838B8394
:101950008D819E8101979E838D838D819E810097CD
:1019600069F714C06F81788589859A850E9449003E
:10197000DC01CB019E838D838D819E819A83898337
:1019800089819A810197F1F79A83898383E062E0E4
:1019900040E00E946B112F960FB6F894DEBF0FBE89
:1019A000CDBFCF91DF910895DF93CF93CDB7DEB751
:1019B0002F970FB6F894DEBF0FBECDBF8F8783E0A1
:1019C00060E041E00E946B1183E061E040E00E9432
:1019D0006B1182E06F850E94221183E062E041E09A
:1019E0000E946B1180E090E0A0E0B0E48B879C87C0
:1019F000AD87BE876B857C858D859E8520E030E038
:101A00004AEF54E40E94FB02DC01CB018F839887EC
:101A1000A987BA876F81788589859A8520E030E02B
:101A200040E85FE30E94010588232CF481E090E008
:101A30009E838D833FC06F81788589859A8520E05C
:101A40003FEF4FE757E40E94A10418164CF56B8551
:101A50007C858D859E8520E030E040E251E40E9447
:101A6000FB02DC01CB01BC01CD010E944900DC017D
:101A7000CB019E838D830FC088EC90E09C838B8389
:101A80008B819C810197F1F79C838B838D819E8153
:101A900001979E838D838D819E81009769F714C085
:101AA0006F81788589859A850E944900DC01CB0188
:101AB0009E838D838D819E819A83898389819A817A
:101AC0000197F1F79A83898383E062E040E00E9406
:101AD0006B112F960FB6F894DEBF0FBECDBFCF911E
:101AE000DF910895DF93CF930F92CDB7DEB789834F
:101AF00089810E94110B0F90CF91DF910895DF93A0
:101B0000CF930F92CDB7DEB7898389810E94EC090C
:101B10000F90CF91DF910895DF93CF93CDB7DEB7CC
:101B200081E00E947F0DCF91DF910895DF93CF93E5
:101B3000CDB7DEB788E00E947F0DCF91DF91089589
:101B4000DF93CF93CDB7DEB78AE00E947F0DCF91B0
:101B5000DF910895DF93CF93CDB7DEB780E10E9488
:101B60007F0DCF91DF910895DF93CF93CDB7DEB78F
:101B700084E10E947F0DCF91DF910895DF93CF9391
:101B8000CDB7DEB72E970FB6F894DEBF0FBECDBF30
:101B900080E090E0A0E2B2E48B879C87AD87BE87AF
:101BA0006B857C858D859E8520E030E04AEF54E48E
:101BB0000E94FB02DC01CB018F839887A987BA873B
:101BC0006F81788589859A8520E030E040E85FE381
:101BD0000E94010588232CF481E090E09E838D8390
:101BE0003FC06F81788589859A8520E03FEF4FE778
:101BF00057E40E94A10418164CF56B857C858D85F1
:101C00009E8520E030E040E251E40E94FB02DC01CE
:101C1000CB01BC01CD010E944900DC01CB019E83B8
:101C20008D830FC088EC90E09C838B838B819C819B
:101C30000197F1F79C838B838D819E8101979E8311
:101C40008D838D819E81009769F714C06F8178859F
:101C500089859A850E944900DC01CB019E838D8392
:101C60008D819E819A83898389819A810197F1F779
:101C70009A83898382E00E94EC0988E20E94EC0941
:101C80008CE00E94EC0981E00E94EC092E960FB6D0
:101C9000F894DEBF0FBECDBFCF91DF910895DF93E3
:101CA000CF9300D00F92CDB7DEB79B838A83198282
:101CB0000EC08981282F30E08A819B81FC01E20FD0
:101CC000F31F80810E94720D89818F5F89838981D2
:101CD000282F30E08A819B81FC01E20FF31F808175
:101CE000882339F70F900F900F90CF91DF910895CF
:101CF000DF93CF93CDB7DEB7A4970FB6F894DEBFCE
:101D00000FBECDBF9CA38BA319821DC08981E82F74
:101D1000F0E08BA19CA12AE030E0B9010E94A71855
:101D2000282FCE010396E80FF91F20838BA19CA1D9
:101D30002AE030E0B9010E94A718CB019CA38BA335
:101D400089818F5F89838BA19CA10097F9F6898196
:101D500081508A8311C08A81282F332727FD30952F
:101D6000CE010396FC01E20FF31F8081805D0E948B
:101D7000720D8A8181508A838A81882364F7A496B0
:101D80000FB6F894DEBF0FBECDBFCF91DF9108959F
:101D9000DF93CF9300D00F92CDB7DEB78A836B83EA
:101DA0008A81882319F48B81898306C08A818130D6
:101DB00019F48B81805C8983898180580E947F0D12
:101DC0000F900F900F90CF91DF910895DF93CF93F5
:101DD000CDB7DEB72A970FB6F894DEBF0FBECDBFE2
:101DE0008A836B834C838AE089838B81883008F0F7
:101DF000D5C18C81813009F07EC08A81282F30E0E6
:101E00003A87298789859A858130910569F12985E5
:101E10003A85223031052CF489859A85009769F03E
:101E200068C029853A8522303105A9F189859A85CE
:101E30008330910509F446C05CC0A9E3B0E0E9E352
:101E4000F0E08181482F8B81282F30E081E090E005
:101E5000022E02C0880F991F0A94E2F7809584230E
:101E600011968C93119747C0A6E3B0E0E6E3F0E04B
:101E70008181482F8B81282F30E081E090E0022E75
:101E800002C0880F991F0A94E2F780958423119667
:101E90008C93119730C0A3E3B0E0E3E3F0E08181DD
:101EA000482F8B81282F30E081E090E0022E02C085
:101EB000880F991F0A94E2F78095842311968C93DA
:101EC000119719C0A0E3B0E0E0E3F0E08181482F72
:101ED0008B81282F30E081E090E0022E02C0880F35
:101EE000991F0A94E2F78095842311968C93119799
:101EF00002C081E089838C81823009F0CDC08A8163
:101F0000282F30E038872F838F8198858130910585
:101F100009F441C02F813885223031052CF48F819E
:101F20009885009771F0B5C02F8138852230310532
:101F300009F45BC08F8198858330910509F47FC0D7
:101F4000A8C0A9E3B0E0E9E3F0E08181482F8B81EC
:101F5000282F30E081E090E002C0880F991F2A9579
:101F6000E2F78095842311968C93A9E3B0E0E9E32E
:101F7000F0E08281482F8B81282F30E081E090E0D3
:101F8000022E02C0880F991F0A94E2F7842B129642
:101F90008C93129704C1A6E3B0E0E6E3F0E0818100
:101FA000482F8B81282F30E081E090E002C0880F1D
:101FB000991F2A95E2F78095842311968C93A6E3C6
:101FC000B0E0E6E3F0E08281482F8B81282F30E0FB
:101FD00081E090E0022E02C0880F991F0A94E2F778
:101FE000842B12968C931297DAC0A3E3B0E0E3E35C
:101FF000F0E08181482F8B81282F30E081E090E054
:1020000002C0880F991F2A95E2F7809584231196C4
:102010008C93A3E3B0E0E3E3F0E08281482F8B816F
:10202000282F30E081E090E0022E02C0880F991F37
:102030000A94E2F7842B12968C931297B0C0A0E317
:10204000B0E0E0E3F0E08181482F8B81282F30E081
:1020500081E090E002C0880F991F2A95E2F78095F1
:10206000842311968C93A0E3B0E0E0E3F0E082815A
:10207000482F8B81282F30E081E090E0022E02C0B3
:10208000880F991F0A94E2F7842B12968C9312976B
:1020900086C081E0898383C08C81882309F07BC05E
:1020A0008A81282F30E03E832D838D819E8181306F
:1020B000910561F12D813E81223031052CF48D8115
:1020C0009E81009769F064C02D813E8122303105E8
:1020D00099F18D819E818330910509F443C058C0E8
:1020E000A9E3B0E0E9E3F0E08181482F8B81282F5C
:1020F00030E081E090E0022E02C0880F991F0A9420
:10210000E2F7842B11968C93119749C0A6E3B0E0B7
:10211000E6E3F0E08181482F8B81282F30E081E0D9
:1021200090E0022E02C0880F991F0A94E2F7842BD8
:1021300011968C93119733C0A3E3B0E0E3E3F0E092
:102140008181482F8B81282F30E081E090E0022EA2
:1021500002C0880F991F0A94E2F7842B11968C9382
:1021600011971DC0A0E3B0E0E0E3F0E08181482FCB
:102170008B81282F30E081E090E0022E02C0880F92
:10218000991F0A94E2F7842B11968C93119707C03C
:1021900081E0898304C083E0898301C01982898139
:1021A0002A960FB6F894DEBF0FBECDBFCF91DF9158
:1021B0000895DF93CF9300D000D00F92CDB7DEB754
:1021C0008A836B838AE089838A81282F30E03D836C
:1021D0002C838C819D8181309105D1F02C813D81B2
:1021E000223031052CF48C819D81009761F01FC055
:1021F0002C813D812230310581F08C819D8183309D
:10220000910581F014C0E9E3F0E08B81818311C076
:10221000E6E3F0E08B8181830CC0E3E3F0E08B81A7
:10222000818307C0E0E3F0E08B81818302C081E01D
:10223000898389810F900F900F900F900F90CF910D
:10224000DF910895DF93CF9300D000D00F92CDB7E8
:10225000DEB78A836B838AE089838A81282F30E006
:102260003D832C838C819D8181309105D1F02C811F
:102270003D81223031052CF48C819D81009761F0E5
:102280001FC02C813D812230310581F08C819D81E0
:102290008330910581F014C0E9E3F0E08B81828303
:1022A00011C0E6E3F0E08B8182830CC0E3E3F0E051
:1022B0008B81828307C0E0E3F0E08B81828302C0E0
:1022C00081E0898389810F900F900F900F900F907C
:1022D000CF91DF910895DF93CF93CDB7DEB72897E5
:1022E0000FB6F894DEBF0FBECDBF8A836B834C83DD
:1022F0008AE089838B81883008F005C18C8188232E
:1023000009F07FC08A81282F30E038872F838F81A2
:1023100098858130910569F12F813885223031050A
:102320002CF48F819885009769F068C02F813885DB
:1023300022303105A9F18F8198858330910509F408
:1023400046C05CC0A9E3B0E0E9E3F0E08281482F39
:102350008B81282F30E081E090E0022E02C0880FB0
:10236000991F0A94E2F78095842312968C93129712
:10237000CBC0A6E3B0E0E6E3F0E08281482F8B819A
:10238000282F30E081E090E0022E02C0880F991FD4
:102390000A94E2F78095842312968C931297B4C026
:1023A000A3E3B0E0E3E3F0E08281482F8B81282FA4
:1023B00030E081E090E0022E02C0880F991F0A945D
:1023C000E2F78095842312968C9312979DC0A0E328
:1023D000B0E0E0E3F0E08281482F8B81282F30E0ED
:1023E00081E090E0022E02C0880F991F0A94E2F764
:1023F0008095842312968C93129786C081E08983FE
:1024000083C08C81813009F07BC08A81282F30E025
:102410003E832D838D819E818130910561F12D81D7
:102420003E81223031052CF48D819E81009769F028
:1024300064C02D813E812230310599F18D819E81CC
:102440008330910509F443C058C0A9E3B0E0E9E343
:10245000F0E08281482F8B81282F30E081E090E0EE
:10246000022E02C0880F991F0A94E2F7842B12965D
:102470008C93129749C0A6E3B0E0E6E3F0E08281D6
:10248000482F8B81282F30E081E090E0022E02C09F
:10249000880F991F0A94E2F7842B12968C93129757
:1024A00033C0A3E3B0E0E3E3F0E08281482F8B8107
:1024B000282F30E081E090E0022E02C0880F991FA3
:1024C0000A94E2F7842B12968C9312971DC0A0E316
:1024D000B0E0E0E3F0E08281482F8B81282F30E0EC
:1024E00081E090E0022E02C0880F991F0A94E2F763
:1024F000842B12968C93129707C081E0898304C0C5
:1025000084E0898301C01982898128960FB6F894E6
:10251000DEBF0FBECDBFCF91DF910895DF93CF9384
:1025200000D000D00F92CDB7DEB78A836B838AE0EC
:1025300089838B81883008F07BC08A81282F30E026
:102540003D832C838C819D818130910561F12C81AB
:102550003D81223031052CF48C819D81009769F0FA
:1025600064C02C813D812230310599F18C819D819F
:102570008330910509F443C058C0A9E3B0E0E9E312
:10258000F0E08281482F8B81282F30E081E090E0BD
:10259000022E02C0880F991F0A94E2F78427129630
:1025A0008C93129746C0A6E3B0E0E6E3F0E08281A8
:1025B000482F8B81282F30E081E090E0022E02C06E
:1025C000880F991F0A94E2F7842712968C9312972A
:1025D00030C0A3E3B0E0E3E3F0E08281482F8B81D9
:1025E000282F30E081E090E0022E02C0880F991F72
:1025F0000A94E2F7842712968C9312971AC0A0E3EC
:10260000B0E0E0E3F0E08281482F8B81282F30E0BA
:1026100081E090E0022E02C0880F991F0A94E2F731
:10262000842712968C93129704C081E0898301C09D
:10263000198289810F900F900F900F900F90CF917A
:10264000DF910895DF93CF93CDB7DEB727970FB60D
:10265000F894DEBF0FBECDBF8A836B835D834C834E
:102660008AE089838C819D81009709F47AC08B81EF
:10267000883008F074C08A81282F30E03F832E8391
:102680004E815F814130510559F18E819F818230A9
:10269000910534F42E813F812115310569F05CC02C
:1026A0004E815F814230510579F18E819F81833067
:1026B000910509F43DC050C0E9E3F0E08081282F86
:1026C00030E08B81882F90E0A90102C05595479595
:1026D0008A95E2F7CA018170EC81FD81808343C055
:1026E000E6E3F0E08081282F30E08B81882F90E0B6
:1026F000A90102C0559547958A95E2F7CA018170F4
:10270000EC81FD8180832FC0E3E3F0E08081282FFE
:1027100030E08B81882F90E0A90102C05595479544
:102720008A95E2F7CA018170EC81FD8180831BC02C
:10273000E0E3F0E08081282F30E08B81882F90E06B
:10274000A90102C0559547958A95E2F7CA018170A3
:10275000EC81FD81808307C081E0898304C01982F8
:1027600002C085E08983898127960FB6F894DEBF81
:102770000FBECDBFCF91DF910895DF93CF9300D0EF
:102780000F92CDB7DEB79B838A8384E089838A81E9
:102790009B81009771F0EA81FB818081EA81FB8156
:1027A0002181EA81FB819281622F492F0E94E60EEE
:1027B00002C085E0898389810F900F900F90CF919F
:1027C000DF910895DF93CF93CDB7DEB7AFE5B0E0EB
:1027D000EFE5F0E0808180688C93CF91DF910895E0
:1027E000DF93CF93CDB7DEB7AFE5B0E0EFE5F0E034
:1027F00080818F778C93CF91DF910895DF93CF9372
:1028000000D000D00F92CDB7DEB78FEF8B831A8246
:102810005EC08A81882F90E0FC01E353FE4F9081D7
:1028200081E0692F40E00E946B1119823DC08981CF
:10283000882F90E0FC01E753FE4F90819E012C5FB2
:102840003F4F81E0692FA9010E9422138C818823C8
:1028500041F58981482F50E08A81282F30E0CA0154
:10286000880F991F880F991F820F931FFC01EF5249
:10287000FE4F80818B830FC08981882F90E0FC01FF
:10288000E753FE4F90819E012C5F3F4F81E0692FFF
:10289000A9010E9422138C81882371F38B818D837F
:1028A0001CC089818F5F89838981843008F4BFCF00
:1028B0008A81882F90E0FC01E353FE4F908181E0F4
:1028C000692F41E00E946B118A818F5F8A838A8120
:1028D000843008F49ECF8B818D838D810F900F9073
:1028E0000F900F900F90CF91DF910895DF93CF93CA
:1028F000CDB7DEB7EAE3F0E08FEF8083E7E3F0E007
:102900008FE08083E4E3F0E08FEF8083E1E3F0E0A9
:102910008FEF8083EBE3F0E01082E8E3F0E08FEFED
:102920008083E5E3F0E01082E2E3F0E01082CF91F3
:10293000DF910895DF93CF9300D00F92CDB7DEB72C
:102940009B838A838AE089838A819B810097D1F067
:10295000EA81FB818181EA81FB819281692F41E0DB
:102960000E94E60EEA81FB818081882369F4EA8176
:10297000FB818181EA81FB819281692F41E00E9484
:102980006B1102C085E0898389810F900F900F90B1
:10299000CF91DF910895DF93CF9300D000D000D086
:1029A000CDB7DEB79C838B837E836D838AE089837A
:1029B0008B819C810097C9F18D819E810097A9F13F
:1029C000EB81FC818181EB81FC8192819E012E5FF4
:1029D0003F4F692FA9010E942213EB81FC81808166
:1029E000882379F48A81882329F4ED81FE8181E0AE
:1029F00080831DC08A818130D1F4ED81FE811082F7
:102A000016C0EB81FC818081813089F48A8181301C
:102A100029F4ED81FE8181E0808309C08A818823C9
:102A200031F4ED81FE81108202C085E089838981C5
:102A300026960FB6F894DEBF0FBECDBFCF91DF91C3
:102A40000895DF93CF93CDB7DEB7A3E5B0E0E3E51C
:102A5000F0E08081887F8C93A3E5B0E0E3E5F0E0CF
:102A6000808185608C93CF91DF910895DF93CF9320
:102A700000D000D0CDB7DEB78A838AE089838A810F
:102A8000282F30E03C832B838B819C81009731F091
:102A90002B813C812230310581F01EC0A3E5B0E0DE
:102AA000E3E5F0E080818F7B8C93A3E5B0E0E3E584
:102AB000F0E08081877F8C9311C0A3E5B0E0E3E56F
:102AC000F0E080818F7B8C93A3E5B0E0E3E5F0E05C
:102AD000808188608C9302C088E0898389810F900F
:102AE0000F900F900F90CF91DF910895DF93CF93C8
:102AF000CDB7DEB729970FB6F894DEBF0FBECDBFB6
:102B00008A836B838AE089838A81282F30E0398722
:102B1000288788859985009731F028853985223066
:102B2000310511F142C08B81282F30E03F832E8385
:102B30008E819F81009769F02E813F812130310580
:102B400081F4A9E5B0E0E9E5F0E0808181608C9353
:102B50002EC0A9E5B0E0E9E5F0E080818E7F8C939E
:102B600026C089E0898323C08B81282F30E03D83F4
:102B70002C838C819D81009769F02C813D812130CF
:102B8000310581F4A9E5B0E0E9E5F0E080818260FB
:102B90008C930DC0A9E5B0E0E9E5F0E080818D7F80
:102BA0008C9305C089E0898302C088E0898389818C
:102BB00029960FB6F894DEBF0FBECDBFCF91DF913F
:102BC0000895DF93CF9300D000D000D0CDB7DEB70B
:102BD0008A837C836B838AE089838B819C810097C5
:102BE00011F18A81282F30E03E832D838D819E81D3
:102BF000009731F02D813E812230310549F011C01E
:102C0000E8E5F0E080818170EB81FC8180830BC07E
:102C1000E8E5F0E0808186958170EB81FC8180831E
:102C200002C088E08983898126960FB6F894DEBFBA
:102C30000FBECDBFCF91DF910895EF92FF920F931A
:102C40001F93DF93CF93CDB7DEB769970FB6F89494
:102C5000DEBF0FBECDBF2A8B3B8B4C8B5D8B6E8B4B
:102C60007F8B888F998F8AE0898B88E090E09C87A2
:102C70008B8788E090E09A87898780E091E09E8743
:102C80008D8789859A85CC01A0E0B0E0BC01CD019B
:102C90000E94E3057B018C018B859C85CC01A0E023
:102CA000B0E0BC01CD010E94E3059B01AC01C8016D
:102CB000B7010E94F503DC01CB01BC01CD010E94EC
:102CC0004900DC01CB01988B8F872A893B894C898D
:102CD0005D896E897F89888D998D0E9475007B0141
:102CE0008C018F859889CC01A0E0B0E0BC01CD01BA
:102CF0000E94E3059B01AC01C801B7010E94F503E6
:102D0000DC01CB01BC01CD010E944900DC01CB01FB
:102D100098878F832F8138858D859E8582179307AD
:102D200008F089C08F819885CC01A0E0B0E0BC019B
:102D3000CD010E94E3057B018C018D859E85CC0130
:102D4000A0E0B0E0BC01CD010E94E3059B01AC0115
:102D5000C801B7010E94F503DC01CB0189839A8386
:102D6000AB83BC8369817A818B819C810E944900FD
:102D7000DC01CB018E838E81882F90E0AA2797FDFE
:102D8000A095BA2FBC01CD010E9431059B01AC0179
:102D900069817A818B819C810E949D02DC01CB013B
:102DA0009C01AD0160E070E080E89FE30E949D021D
:102DB000DC01CB017C018D018D859E85CC01A0E0DD
:102DC000B0E0BC01CD010E94E3059B01AC01C8014C
:102DD000B7010E94FB02DC01CB01BC01CD010E94C6
:102DE0004900DC01CB018D838D81882319F08E8110
:102DF0008F5F8E83E2E5F0E08D81808316C08E8147
:102E000081508E83E8E5F0E08081882F90E081702A
:102E100090700097B9F3A8E5B0E0E8E5F0E08081B4
:102E200081608C93E2E5F0E010828E81882339F78F
:102E300085E0898B43C02F8138858D859E85281735
:102E40003907E8F49D858F81292F281B822F8D83D8
:102E5000E2E5F0E08D818083E8E5F0E08081882F75
:102E600090E0817090700097B9F3A8E5B0E0E8E5D4
:102E7000F0E0808181608C9386E0898B1FC02F8178
:102E800038858D859E8528173907B1F4E2E5F0E095
:102E90001082E8E5F0E08081882F90E081709070EA
:102EA0000097B9F3A8E5B0E0E8E5F0E08081816043
:102EB0008C9387E0898B02C085E0898B898969962C
:102EC0000FB6F894DEBF0FBECDBFCF91DF911F913B
:102ED0000F91FF90EF900895DF93CF930F92CDB7AE
:102EE000DEB78AE08983A3E5B0E0E3E5F0E0808126
:102EF0008C9389810F90CF91DF910895DF93CF93C9
:102F000000D000D0CDB7DEB78A838AE089838A817A
:102F1000282F30E03C832B838B819C81813091056D
:102F200021F12B813C81223031052CF48B819C8155
:102F3000009761F047C02B813C812230310521F19F
:102F40008B819C818330910571F13CC0A3E5B0E099
:102F5000E3E5F0E080818F7E8C93A3E5B0E0E3E5CC
:102F6000F0E080818F7D8C932FC0A3E5B0E0E3E596
:102F7000F0E0808180618C93A3E5B0E0E3E5F0E0D0
:102F800080818F7D8C9320C0A3E5B0E0E3E5F0E085
:102F900080818F7E8C93A3E5B0E0E3E5F0E0808153
:102FA00080628C9311C0A3E5B0E0E3E5F0E080819E
:102FB00080618C93A3E5B0E0E3E5F0E0808180627E
:102FC0008C9302C088E0898389810F900F900F90C5
:102FD0000F90CF91DF910895DF93CF93CDB7DEB7F8
:102FE000E2E5F0E08081CF91DF910895DF93CF9308
:102FF00000D0CDB7DEB78A838AE08983E2E5F0E0CE
:103000008A81808389810F900F90CF91DF910895FD
:10301000DF93CF9300D0CDB7DEB78A838AE0898370
:10302000ECE5F0E08A81808389810F900F90CF9149
:10303000DF910895DF93CF9300D00F92CDB7DEB725
:103040009B838A838AE089838A819B81009739F0F8
:103050008A819B819093E7018093E60102C085E01D
:10306000898389810F900F900F90CF91DF91089500
:103070001F920F920FB60F9211242F933F934F93ED
:103080005F936F937F938F939F93AF93BF93EF93D0
:10309000FF93DF93CF93CDB7DEB78091E601909198
:1030A000E701009729F0E091E601F091E701099529
:1030B000CF91DF91FF91EF91BF91AF919F918F9150
:1030C0007F916F915F914F913F912F910F900FBE24
:1030D0000F901F9018951F920F920FB60F92112408
:1030E0002F933F934F935F936F937F938F939F9310
:1030F000AF93BF93EF93FF93DF93CF93CDB7DEB73B
:103100008091E6019091E701009729F0E091E601B6
:10311000F091E7010995CF91DF91FF91EF91BF9178
:10312000AF919F918F917F916F915F914F913F915F
:103130002F910F900FBE0F901F901895DF93CF9394
:10314000CDB7DEB70E94C8090E94E109FFCFAA1BD4
:10315000BB1B51E107C0AA1FBB1FA617B70710F082
:10316000A61BB70B881F991F5A95A9F780959095B4
:10317000BC01CD0108952F923F924F925F926F92C2
:103180007F928F929F92AF92BF92CF92DF92EF92F7
:10319000FF920F931F93CF93DF93CDB7DEB7CA1B78
:1031A000DB0B0FB6F894DEBF0FBECDBF09942A88A3
:1031B000398848885F846E847D848C849B84AA844B
:1031C000B984C884DF80EE80FD800C811B81AA81D8
:1031D000B981CE0FD11D0FB6F894DEBF0FBECDBFA3
:0831E000ED010895F894FFCF02
:1031E800506C6561736520477565737320006E7553
:1031F8006D6265723A00796F7520646F6E2774206E
:1032080070726573732000616E79206E756D6265EA
:10321800727300696E76616C69642072616E6765AD
:1032280000594F552057494E00594F55204C4F5380
:10323800450052494748542047554553533A2000C2
:103248000000000000000000000102020303030365
:10325800040404040404040405050505050505051E
:1032680005050505050505050606060606060606FE
:1032780006060606060606060606060606060606E6
:1032880006060606060606060707070707070707CE
:1032980007070707070707070707070707070707B6
:1032A80007070707070707070707070707070707A6
:1032B8000707070707070707070707070707070796
:1032C800070707070707070708080808080808087E
:1032D8000808080808080808080808080808080866
:1032E8000808080808080808080808080808080856
:1032F8000808080808080808080808080808080846
:103308000808080808080808080808080808080835
:103318000808080808080808080808080808080825
:103328000808080808080808080808080808080815
:103338000808080808080808080808080808080805
:1033480008080808080808080A0405060700010212
:10335800030708092F0405062A0102032D61003D11
:023368002B0038
:00000001FF
